:1000000019C033C032C031C030C02FC02EC02DC087
:100010002CC02BC02AC029C028C027C026C025C09C
:1000200024C023C022C021C020C01FC0FAC01DC0F0
:100030001CC01BC011241FBECFEFCDBFDFE3DEBF4E
:100040001EE3A0E0BEE3E2E1F9E002C005900D92FC
:10005000A430B107D9F72EE3A4E0BEE301C01D929E
:10006000A930B207E1F739D1E6C2CACF80EC80935C
:10007000060893E09093070890E89093050894E0B1
:10008000909321042CE635E020930808309309086A
:1000900080930408089580930208E4E0F8E08081EA
:1000A00086FFFDCF80E4809304080895DF92EF92ED
:1000B000FF920F931F93CF93DF938C01D62E7C0179
:1000C000C0E0D0E005C0F70181917F01E4DF219617
:1000D000F80101900020E9F73197E01BF10BCE17F2
:1000E000DF0788F3F1E0DF1208C08AE0D4DF8DE09B
:1000F000D2DF8AE0D0DF8DE0CEDFDF91CF911F919C
:100100000F91FF90EF90DF900895FC019081818125
:10011000803241F0983671F0913691F0943709F0C1
:100120007AC014C0983631F0943781F0913609F0D6
:100130006CC006C061E070E08AE396E8B7DF08951E
:1001400061E070E081EA96E8B1DF08952091063E13
:100150003091073E2330310559F460E070E080E2D1
:1001600097E8A4DF61E070E08BE797E89FDF0895F0
:1001700022303105D9F5803231F061E070E08AEA51
:1001800097E894DF08958281833751F583818D3616
:1001900039F58481813621F58581833709F586819A
:1001A0008836F1F487818236D9F480858537C1F4A9
:1001B00081858237A9F48285873691F483858536D7
:1001C00079F48485823761F461E070E084EF97E828
:1001D0006DDF83E090E08093063E9093073E0895A4
:1001E00061E070E08AE398E861DF0895213031052D
:1001F00031F461E070E08AE698E858DF089561E044
:1002000070E08CEA98E852DF089561E070E08BEDD1
:1002100098E84CDF089561E070E08BED98E846DFE8
:1002200008951F920F920FB60F9211242F933F93B0
:100230004F935F936F937F938F939F93AF93BF93EE
:10024000CF93EF93FF93C09100088C2F90E027E8A5
:100250008A37920781F1E091043EF091053EE85F14
:10026000F14CC08318DFC83061F0CF3751F0809176
:10027000043E9091053E01968093043E9093053E86
:1002800009C08091043E9091053E01978093043E01
:100290009093053ECD3079F48AE090E0FCDE88E072
:1002A0009EE333DF1092043E1092053E60E070E062
:1002B00088E099E8FBDEFF91EF91CF91BF91AF917C
:1002C0009F918F917F916F915F914F913F912F916E
:1002D0000F900FBE0F901F901895C8DE7894109263
:1002E000063E1092073EE0E4F4E081E0818380E284
:1002F0008283C0E4D4E011E06894CC24C1F8D12C0E
:10030000EE24E394F12C888585FD0FC08091063E94
:100310009091073E009709F093C0E092063EF0925C
:10032000073E888585FF0CC09AC0888585FD29C059
:100330008091063E9091073E8130910509F084C07E
:1003400020E030E040EA50E46091003E7091013ED0
:100350008091023E9091033E87D06093003E70935F
:10036000013E8093023E9093033E20E030E04CE05B
:1003700052E4E7D018161CF1C092063ED092073E18
:1003800035C08091063E9091073E0097A9F41D83E9
:100390002FE784E89EE1215080409040E1F700C0C3
:1003A00000001E832FE784E89EE1215080409040AA
:1003B000E1F700C00000A7CF81309105A9F41D83AB
:1003C0002FEB87E299E0215080409040E1F700C098
:1003D00000001E832FEB87E299E02150804090407F
:1003E000E1F700C000008FCF0297A9F41D832FED25
:1003F00083E994E0215080409040E1F700C0000084
:100400001E832FED83E994E0215080409040E1F776
:1004100000C0000078CF1D832FE986E891E02150CD
:1004200080409040E1F700C000001E832FE986E87D
:1004300091E0215080409040E1F700C0000063CF80
:10044000288525FDB9CF03C0009771F6A0CF809114
:10045000063E9091073E8130910531F671CF809133
:10046000063E9091073EA8CF5058BB27AA270E946E
:100470004C020C94E1020E94D30238F00E94DA028E
:1004800020F039F49F3F19F426F40C94D0020EF4B6
:10049000E095E7FB0C94CA02E92F0E94F20258F3A0
:1004A000BA17620773078407950720F079F4A6F559
:1004B0000C9414030EF4E0950B2EBA2FA02D0B0113
:1004C000B90190010C01CA01A0011124FF27591B99
:1004D00099F0593F50F4503E68F11A16F040A22F9F
:1004E000232F342F4427585FF3CF46953795279510
:1004F000A795F0405395C9F77EF41F16BA0B620B0F
:10050000730B840BBAF09150A1F0FF0FBB1F661F55
:10051000771F881FC2F70EC0BA0F621F731F841F98
:1005200048F4879577956795B795F7959E3F08F0BE
:10053000B0CF9395880F08F09927EE0F9795879580
:1005400008950E94A60208F481E00895990F00081A
:10055000550FAA0BE0E8FEEF16161706E807F90795
:10056000C0F012161306E407F50798F0621B730B30
:10057000840B950B39F40A2661F0232B242B252BB1
:1005800021F408950A2609F4A140A6958FEF811D54
:10059000811D089597F99F6780E870E060E00895F5
:1005A0009FEF80EC089500240A941616170618068B
:1005B0000906089500240A94121613061406050667
:1005C0000895092E0394000C11F4882352F0BB0FF8
:1005D00040F4BF2B11F460FF04C06F5F7F4F8F4F5B
:1005E0009F4F089557FD9058440F551F59F05F3F96
:1005F00071F04795880F97FB991F61F09F3F79F045
:1006000087950895121613061406551FF2CF4695C6
:10061000F1DF08C0161617061806991FF1CF869548
:100620007105610508940895E894BB27662777272C
:0A063000CB0197F90895F894FFCF6D
:10063A000A0D414E4421584F522044657262794353
:10064A006F6E2056494949202832303138292054C2
:10065A007265766F72204261646765200A0D2068B0
:10066A00202D2048656C70202874686973206D6598
:10067A006E7529200A0D2061202D2041626F757444
:10068A00200A0D2074202D2054616C6B20746F2079
:10069A00547265766F72002041206261646765203A
:1006AA00666F72206F757220666972737420286192
:1006BA006E6420686F706566756C6C79206E6F74F5
:1006CA00206C61737429204465726279436F6E2EBF
:1006DA000D0A20426967207468616E6B7320746F1B
:1006EA0020417072696C2057726967687420666F5E
:1006FA0072206272696E67696E67207573206F7502
:10070A007420686572652120576520486561727496
:10071A0020596F752100205965732E20596F757203
:10072A00206A6F6220697320646F6E652E204920EB
:10073A0063616E2073656520746865206C696768FB
:10074A0074732E20416C6C2074686520626C696E2B
:10075A006B79206C696768747320696E20746865A8
:10076A00206772656174206265796F6E642E0D0A66
:10077A000020466F7220796F7572207265776172F8
:10078A00642C20676F20746F3A2068747470733A0F
:10079A002F2F676F6F2E676C2F5675753158500063
:1007AA00204920616D20616C6D6F73742061742023
:1007BA0070656163652E2E2E72656164206D6520F9
:1007CA006D79206C617374207269676874732E2E58
:1007DA002E20286578616D706C653A207420534527
:1007EA004B524554574F5244290020534D415348C8
:1007FA0042555247455221205965732E2E2E746850
:10080A0061742077696C6C20646F2E2E2E696620C5
:10081A006F6E6C792E2E2E69742077657265204969
:10082A006E204E204F7574204275726765722E00D5
:10083A00204920646F6E27742077616E7420746873
:10084A00617420746F20626520746865206C61731E
:10085A0074207468696E6720492068656172210096
:10086A00205A4F4D47212121204D59204655434BAF
:10087A00494E4720464F4F54204255524E5A212046
:10088A00434F4F4C20495420444F574E21204E4548
:10089A0045442E2E2E4D494C4B5348414B45212160
:1008AA002100204F4D4721204D59204655434B49A1
:1008BA004E472041524D2048555254532120504C06
:1008CA004541534520435554204954204F4646211B
:1008DA0000205520495A204452554E4B2120547924
:1008EA007065206820746F20676574206C69737462
:1008FA00206F6620636F6D6D616E64732100414ED7
:08090A004421584F523E200029
:0409120000005C4243
:00000001FF
